:100000000C946C000C9416070C94EF060C948C0660
:100010000C9429060C94B8050C9494000C9494004C
:100020000C9494000C9494000C9494000C94940000
:100030000C9494000C9494000C9494000C949400F0
:100040000C946E050C9494000C943C050C941605CD
:100050000C9494000C9494000C9494000C949400D0
:100060000C9494000C94940000000008000201001D
:100070000003040700000000000000000000000072
:10008000250028002B0000000000240027002A0083
:1000900000000000230026002900000102030405DF
:1000A000060700010203040500010203040504041D
:1000B0000404040404040202020202020303030310
:1000C00003030102040810204080010204081020EC
:1000D000010204081020D40C11241FBECFEFD8E079
:1000E000DEBFCDBF11E0A0E0B1E0E6EBFAE102C077
:1000F00005900D92AE34B107D9F722E0AEE4B1E03D
:1001000001C01D92AE3AB207E1F710E0CCE6D0E0B4
:1001100004C02197FE010E94440DCB36D107C9F7D8
:100120000E943D070C94590D0C9400009EEF980F0F
:10013000923008F47EC090E0FC01EE53FF4F249112
:10014000FC01E255FF4F3491323089F54091AD0208
:10015000422B4093AD024091AA02422B4093AA0247
:1001600086569F4FFC01A491323079F5B0E0AA0F7A
:10017000BB1FA456BD4F6D937C93E4E9F0E0A591BD
:10018000B4918C9180939B028BE690E090939A02BD
:100190008093990280916800816080936800A091AB
:1001A0009902B0919A02EC912E2B2C930895333042
:1001B00009F068C04091AC02422B4093AC024091E0
:1001C000A902422B4093A902CBCF3330C1F4B0E057
:1001D000AA0FBB1FA357BD4F6D937C93E6E9F0E0D8
:1001E000A591B4918C9180938C028CE690E09093D1
:1001F0009A0280939902809168008260CECF343059
:1002000071F6B0E0AA0FBB1FA458BD4F6D937C934D
:10021000E8E9F0E0A591B4918C9180937B028DE6A2
:1002200090E090939A028093990280916800846094
:10023000B4CF9FB7F894823099F4709378026093AA
:100240007702E898809169008C7F809369008091A3
:100250006900816080936900E09AE89A9FBF0895E1
:1002600070937A0260937902E99880916900837FA4
:100270008093690080916900846080936900E19AAD
:10028000E99AECCF343009F06BCF4091AB02422BAE
:100290004093AB024091A802422B4093A80260CF4A
:1002A000AF92BF92CF92DF92EF92FF920F931F9384
:1002B000CF93DF936C017B018B01040F151FEB01C2
:1002C0005E01AE18BF08C017D10759F06991D60179
:1002D000ED91FC910190F081E02DC6010995892BEB
:1002E00079F7C501DF91CF911F910F91FF90EF90AA
:1002F000DF90CF90BF90AF900895FC01538D448D57
:10030000252F30E0842F90E0821B930B541710F0C0
:10031000CF96089501970895FC01918D828D9817CD
:1003200061F0A28DAE0FBF2FB11D5D968C91928DA5
:100330009F5F9F73928F90E008958FEF9FEF0895D6
:10034000FC01918D828D981731F0828DE80FF11D9F
:10035000858D90E008958FEF9FEF0895FC01918DBA
:10036000228D892F90E0805C9F4F821B91098F73B3
:10037000992708958AED91E00E94AE0121E0892B32
:1003800009F420E0822F089580E090E0892B29F085
:100390000E94BA0181110C9400000895FC01A48D03
:1003A000A80FB92FB11DA35ABF4F2C91848D90E097
:1003B00001968F739927848FA689B7892C93A0897A
:1003C000B1898C91837080648C93938D848D981304
:1003D00006C00288F389E02D80818F7D8083089597
:1003E000EF92FF920F931F93CF93DF93EC0181E085
:1003F000888F9B8D8C8D98131AC0E889F98980812C
:1004000085FF15C09FB7F894EE89FF896083E8895E
:10041000F98980818370806480839FBF81E090E050
:10042000DF91CF911F910F91FF90EF900895F62EDD
:100430000B8D10E00F5F1F4F0F731127E02E8C8D77
:100440008E110CC00FB607FCFACFE889F9898081BC
:1004500085FFF5CFCE010E94CE01F1CFEB8DEC0FE1
:10046000FD2FF11DE35AFF4FF0829FB7F8940B8FD9
:10047000EA89FB8980818062CFCF682F8AED91E085
:100480000C94F001CF93DF93EC01888D8823B9F0B1
:10049000AA89BB89E889F9898C9185FD03C080818F
:1004A00086FD0DC00FB607FCF7CF8C9185FFF2CF0C
:1004B000808185FFEDCFCE010E94CE01E9CFDF9193
:1004C000CF910895CF93DF9390E0FC01EE53FF4F5F
:1004D000249182559F4FFC0184918823D1F090E0B4
:1004E000880F991FFC01EA57FF4FA591B491FC01B9
:1004F000E458FF4FC591D49161110EC09FB7F89495
:100500008C91E22FE0958E238C932881E223E8835F
:100510009FBFDF91CF9108958FB7F894EC91E22BB4
:10052000EC938FBFF6CF3FB7F89480917D01909107
:100530007E01A0917F01B091800126B5A89B05C0E6
:100540002F3F19F00196A11DB11D3FBFBA2FA92F52
:10055000982F8827BC01CD01620F711D811D911D4F
:1005600042E0660F771F881F991F4A95D1F70895BB
:100570008F929F92AF92BF92CF92DF92EF92FF92B3
:100580004B015C010E9493026B017C010E9493026B
:100590006C197D098E099F09683E7340810591059C
:1005A000A8F321E0821A9108A108B10888EEC80ECC
:1005B00083E0D81EE11CF11C81149104A104B10454
:1005C00029F7FF90EF90DF90CF90BF90AF909F9072
:1005D0008F900895CF93DF9370E0FB01E859FF4FB0
:1005E0009491FB01EE53FF4F2491FB01E255FF4F25
:1005F000E491C82FD0E0EE2309F443C0992339F0E9
:10060000933041F1E8F4913059F1923069F1F0E022
:10061000EE0FFF1FE057FF4FA591B491EC912E23F1
:1006200081F10E949302CC0FDD1FCC0FDD1FC05B58
:10063000DE4F688379838A839B83DF91CF9108950E
:100640009730A9F09830C9F0943009F78091800074
:100650008F7D03C0809180008F7780938000D7CFFB
:1006600084B58F7784BDD3CF84B58F7DFBCF809148
:10067000B0008F778093B000CACF8091B0008F7D9B
:10068000F9CF0E949302FE01EE0FFF1FE050FF4FD3
:1006900020813181CC0FDD1FCC0FDD1FC05BDE4F11
:1006A00048815981641B750B7F7046E0429FC001F1
:1006B000439F900D1124680F791F23E0769567956D
:1006C0002A95E1F771836083B8CF62E080E00C94F3
:1006D000EA0263E081E00C94EA0264E082E00C94B8
:1006E000EA0265E083E00C94EA0266E084E00C94A0
:1006F000EA0267E085E00C94EA0268E086E00C9488
:10070000EA026BE087E00C94EA02F89484E1E0E00E
:10071000F1E0A4E2B1E001900D928A95E1F788B191
:1007200098E0892788B978940895FC010190002009
:10073000E9F73197AF01481B590BBC018AED91E0F5
:100740000C9450018F929F92AF92BF920F931F9380
:10075000CF93DF93CDB7DEB7A1970FB6F894DEBF86
:100760000FBECDBF19A2423008F44AE08E010F5DE2
:100770001F4F842E912CB12CA12CA50194010E9415
:10078000170DE62FB901CA01EA30F4F4E05DD80193
:10079000EE938D01232B242B252B79F790E080E01D
:1007A000109719F0CD010E949503A1960FB6F89409
:1007B000DEBF0FBECDBFDF91CF911F910F91BF90D4
:1007C000AF909F908F900895E95CE1CFCF93DF9336
:1007D0000E943D02EC018AE491E00E9495038C0F97
:1007E0009D1FDF91CF910895BC0190E080E04AE029
:1007F0000C94A203CF92DF92EF92FF920F931F937C
:10080000CF93DF93EC018CE0DE011D928A95E9F72E
:1008100009EA11E0E0E0D801FD918D01FC3209F018
:1008200054C0EF5FE13079F0E23071F1B1E00B3D9F
:100830001B0789F7DF91CF911F910F91FF90EF90E8
:10084000DF90CF900895D801EC91EC32D9F02C8153
:100850003D814E815F81AAE0B0E00E94390D2E2FCC
:10086000EE0F330B205331096901330FEE08FF08F7
:10087000DC01CB018C0D9D1DAE1DBF1D8C839D83A6
:10088000AE83BF83E1E0D2CFD801EC91EC32D9F056
:10089000288539854A855B85AAE0B0E00E94390D3C
:1008A0002E2FEE0F330B205331096901330FEE0861
:1008B000FF08DC01CB018C0D9D1DAE1DBF1D88877F
:1008C0009987AA87BB87E2E0B1CFE13009F4BBCFBB
:1008D000E230D1F2E111AACF288139814A815B81CE
:1008E000AAE0B0E00E94390D2F2FFF0F330B2053E9
:1008F00031096901330FEE08FF08DC01CB018C0DD3
:100900009D1DAE1DBF1D88839983AA83BB838ECF97
:10091000CF92DF92EF92FF920F931F93CF93DF93CB
:10092000EB017B0124E0E20EF11C8B016C01C61A85
:10093000D70AC601800F911F0E94010DF801819313
:100940008F01EE15FF05A9F7CE01DF91CF911F9121
:100950000F91FF90EF90DF90CF9008950F931F932A
:10096000CF93DF938C01EB010E94010D8883C801B6
:1009700001960E94010D8983CE01DF91CF911F91D5
:100980000F910895FF920F931F93CF93DF93EC0184
:100990008B01FB01F0800E94010DF81621F06F2DF4
:1009A000CE010E94090DF801F1802196CE010E942E
:1009B000010DF81621F06F2DCE010E94090DC8011E
:1009C000DF91CF911F910F91FF9008959F92AF9269
:1009D000BF92CF92DF92EF92FF920F931F93CF932C
:1009E000DF935C017B018B01D0E0C0E0F8019190C6
:1009F0008F016501CC0EDD1EC6010E94010D981607
:100A000021F0692DC6010E94090D2196C430D1053F
:100A100069F7C701DF91CF911F910F91FF90EF9080
:100A2000DF90CF90BF90AF909F9008951F920F924C
:100A30000FB60F9211242F933F934F935F936F93B1
:100A40007F938F939F93AF93BF93EF93FF938AED21
:100A500091E00E94CE01FF91EF91BF91AF919F91E4
:100A60008F917F916F915F914F913F912F910F9057
:100A70000FBE0F901F9018951F920F920FB60F92F6
:100A800011242F938F939F93EF93FF93E091EA01AB
:100A9000F091EB018081E091F001F091F10182FD94
:100AA0001BC090818091F3018F5F8F732091F401BF
:100AB000821741F0E091F301F0E0E652FE4F958F8E
:100AC0008093F301FF91EF919F918F912F910F9060
:100AD0000FBE0F901F9018958081F4CF1F920F9238
:100AE0000FB60F9211242F933F938F939F93AF9341
:100AF000BF938091790190917A01A0917B01B0918F
:100B00007C013091780123E0230F2D3758F50196B1
:100B1000A11DB11D209378018093790190937A01F2
:100B2000A0937B01B0937C0180917D0190917E0127
:100B3000A0917F01B09180010196A11DB11D80930C
:100B40007D0190937E01A0937F01B0938001BF91BE
:100B5000AF919F918F913F912F910F900FBE0F906A
:100B60001F90189526E8230F0296A11DB11DD2CF24
:100B70001F920F920FB60F9211242F933F934F9312
:100B80005F936F937F938F939F93AF93BF93CF9315
:100B9000EF93FF9399B1C0917B028091AB023091AA
:100BA000A802292F209523238923822B20916D00D1
:100BB000C927C223C82390937B02CC23C1F1C0FF75
:100BC00005C0E0917C02F0917D020995C1FF05C04E
:100BD000E0917E02F0917F020995C2FF05C0E0918D
:100BE0008002F09181020995C3FF05C0E091820265
:100BF000F09183020995C4FF05C0E0918402F09151
:100C000085020995C5FF05C0E0918602F091870233
:100C10000995C6FF05C0E0918802F0918902099507
:100C2000C7FF05C0E0918A02F0918B020995FF9100
:100C3000EF91CF91BF91AF919F918F917F916F91E4
:100C40005F914F913F912F910F900FBE0F901F908A
:100C500018951F920F920FB60F9211242F933F9366
:100C60004F935F936F937F938F939F93AF93BF93B4
:100C7000CF93EF93FF9396B1C0918C028091AC0219
:100C80003091A902292F209523238923822B20919B
:100C90006C00C927C223C82390938C02CC2351F146
:100CA000C0FF05C0E0918D02F0918E020995C1FF51
:100CB00005C0E0918F02F09190020995C2FF05C036
:100CC000E0919102F09192020995C3FF05C0E09175
:100CD0009302F09194020995C4FF05C0E09195023A
:100CE000F09196020995C5FF05C0E0919702F09139
:100CF00098020995FF91EF91CF91BF91AF919F918C
:100D00008F917F916F915F914F913F912F910F90B4
:100D10000FBE0F901F9018951F920F920FB60F9253
:100D200011242F933F934F935F936F937F938F93F0
:100D30009F93AF93BF93CF93EF93FF9393B1C091E2
:100D40009B028091AD023091AA02292F2095232386
:100D50008923822B20916B00C927C223C82390933B
:100D60009B02CC2351F1C0FF05C0E0919C02F091A1
:100D70009D020995C1FF05C0E0919E02F0919F027E
:100D80000995C2FF05C0E091A002F091A10209956A
:100D9000C3FF05C0E091A202F091A3020995C4FF30
:100DA00005C0E091A402F091A5020995C5FF05C018
:100DB000E091A602F091A7020995FF91EF91CF91E2
:100DC000BF91AF919F918F917F916F915F914F9163
:100DD0003F912F910F900FBE0F901F9018951F926B
:100DE0000F920FB60F9211242F933F934F935F935F
:100DF0006F937F938F939F93AF93BF93EF93FF93E3
:100E0000E0917902F0917A020995FF91EF91BF91FB
:100E1000AF919F918F917F916F915F914F913F9192
:100E20002F910F900FBE0F901F9018951F920F9249
:100E30000FB60F9211242F933F934F935F936F93AD
:100E40007F938F939F93AF93BF93EF93FF93E09123
:100E50007702F09178020995FF91EF91BF91AF91E0
:100E60009F918F917F916F915F914F913F912F91C2
:100E70000F900FBE0F901F901895CF93DF93CDB7B3
:100E8000DEB72C970FB6F894DEBF0FBECDBF7894B7
:100E900084B5826084BD84B5816084BD85B582607F
:100EA00085BD85B5816085BD80916E008160809330
:100EB0006E00109281008091810082608093810099
:100EC00080918100816080938100809180008160A9
:100ED000809380008091B10084608093B100809104
:100EE000B00081608093B00080917A00846080932C
:100EF0007A0080917A00826080937A0080917A00F3
:100F0000816080937A0080917A00806880937A0073
:100F10001092C1003B9A89E190E09093C5008093C4
:100F2000C4008091C20086608093C2008091C1009D
:100F300088698093C10064E670E080E090E00E94E0
:100F4000B80260E082E00E94620260E083E00E94FA
:100F5000620260E084E00E94620260E085E00E943C
:100F6000620260E086E00E94620260E087E00E9428
:100F7000620260E088E00E94620260E08BE00E9412
:100F8000620261E088E00E9462028BB18C6F8BB9D3
:100F900085B1896085B965E673E082E00E949600BC
:100FA00069E673E083E00E9496006DE673E084E0FA
:100FB0000E94960061E773E085E00E94960065E775
:100FC00073E086E00E94960069E773E087E00E9484
:100FD00096006DE773E088E00E94960061E873E098
:100FE0008BE00E949600789482E1E82EF12C96E145
:100FF000492E512C2AE2622E712C3EE1832E912C37
:1010000042E0A42EB12C5CE0352ECE0101966C019D
:101010008091A801843309F439C48091A8018633F2
:1010200009F434C48091A801883309F42FC4809155
:10103000A801813409F42AC48091A701813009F004
:1010400090C18091A8018B3409F092C11092A60141
:101050001092A50100E911E0F601832D11928A9505
:10106000E9F70E948503E4E2F1E0D601832D0190C7
:101070000D928A95E1F769817A8180911C019091A6
:101080001D018617970720F470931D0160931C01C2
:101090004B815C8180911E0190911F0184179507FF
:1010A00020F450931F0140931E012D813E818091B9
:1010B0002001909121018217930720F430932101A0
:1010C000209320018F819885E0912201F0912301E6
:1010D000E817F90720F49093230180932201E0910F
:1010E0001401F09115016E177F0720F4709315011C
:1010F000609314016091160170911701461757070C
:1011000020F450931701409316014091180150911B
:1011100019012417350720F4309319012093180181
:1011200020911A0130911B018217930720F49093AC
:101130001B0180931A01439864E670E080E090E020
:101140000E94B802439A62E370E080E090E00E945F
:10115000B8020150110909F07FCF80911C019091D4
:101160001D01029690931D0180931C018091140132
:10117000909115010297909315018093140180912D
:101180001E0190911F01029690931F0180931E01F2
:101190008091160190911701029790931701809307
:1011A00016018091200190912101029690932101D6
:1011B00080932001809118019091190102979093DA
:1011C00019018093180180912201909123010296C8
:1011D000909323018093220180911A0190911B0129
:1011E000029790931B0180931A01439864E670E084
:1011F00080E090E00E94B8026AE070E080E090E059
:101200000E94B8026CE171E08091A5019091A60165
:101210000E94C2040091A5011091A6010E5F1F4F0C
:101220001093A6010093A5016AE070E080E090E0D1
:101230000E94B8026EE171E0C8010E94C2040091F0
:10124000A5011091A6010E5F1F4F1093A6010093F8
:10125000A5016AE070E080E090E00E94B80260E2E0
:1012600071E0C8010E94C2040091A5011091A6017D
:101270000E5F1F4F1093A6010093A5016AE070E076
:1012800080E090E00E94B80262E271E0C8010E9432
:10129000C2040091A5011091A6010E5F1F4F10938B
:1012A000A6010093A5016AE070E080E090E00E9452
:1012B000B80264E171E0C8010E94C2040091A50176
:1012C0001091A6010E5F1F4F1093A6010093A50178
:1012D0006AE070E080E090E00E94B80266E171E0B0
:1012E000C8010E94C2040091A5011091A6010E5FE1
:1012F0001F4F1093A6010093A5016AE070E080E003
:1013000090E00E94B80268E171E0C8010E94C20446
:101310000091A5011091A6010E5F1F4F1093A60129
:101320000093A5016AE070E080E090E00E94B802BE
:101330006AE171E0C8010E94C2048091A501909108
:10134000A60102969093A6018093A5016AE070E041
:1013500080E090E00E94B8021092A8018FE40E9401
:10136000E6036AE070E080E090E00E94B80250CEB0
:101370008091A801823509F062C01092A6011092F6
:10138000A5016CE171E090E080E00E94AE04B092B3
:10139000A601A092A50180911C0190911D010E94BF
:1013A000F4038CE20E943D020091A5011091A60178
:1013B0006EE171E0C8010E94AE040E5F1F4F1093F2
:1013C000A6010093A50180911E0190911F010E942A
:1013D000F4038CE20E943D020091A5011091A60148
:1013E00060E271E0C8010E94AE040E5F1F4F1093CF
:1013F000A6010093A50180912001909121010E94F6
:10140000F4038CE20E943D020091A5011091A60117
:1014100062E271E0C8010E94AE040E5F1F4F10939C
:10142000A6010093A50180912201909123010E94C1
:10143000F4038CE20E94E6031092A80192CF8091FF
:10144000A801833509F05CC00091A5011091A601A7
:1014500064E171E0C8010E94AE040E5F1F4F10935B
:10146000A6010093A50180911401909115010E949D
:10147000F4038CE20E943D020091A5011091A601A7
:1014800066E171E0C8010E94AE040E5F1F4F109329
:10149000A6010093A50180911601909117010E9469
:1014A000F4038CE20E943D020091A5011091A60177
:1014B00068E171E0C8010E94AE040E5F1F4F1093F7
:1014C000A6010093A50180911801909119010E9435
:1014D000F4038CE20E943D020091A5011091A60147
:1014E0006AE171E0C8010E94AE040E5F1F4F1093C5
:1014F000A6010093A50180911A0190911B0197CF3D
:101500008091A801883409F046C089E991E00E94E1
:10151000FA03F092A601E092A50169E971E082E187
:1015200090E00E94E6040091A5011091A6010C5FD5
:101530001F4F1093A6010093A5016AE070E080E0C0
:1015400090E00E94B8026DE971E0C8010E94E604D3
:101550000091A5011091A6010C5F1F4F1093A601E9
:101560000093A5016AE070E080E090E00E94B8027C
:1015700061EA71E0C8010E94E6048091A5019091A2
:10158000A60104969093A6018093A50164E670E0FD
:1015900080E090E0DFCE8091A8018C34B1F58DE839
:1015A00091E00E94FA039092A6018092A5016DE855
:1015B00071E08EE190E00E94E6040091A501109197
:1015C000A6010C5F1F4F1093A6010093A5016AE0CE
:1015D00070E080E090E00E94B80261E971E0C8012B
:1015E0000E94E6040091A5011091A6010C5F1F4F17
:1015F0001093A6010093A5016AE070E080E090E0FE
:101600000E94B80265E971E0B5CF8091A8018D34E0
:10161000B1F581E891E00E94FA037092A601609210
:10162000A50161E871E08AE290E00E94E604009181
:10163000A5011091A6010C5F1F4F1093A601009306
:10164000A5016AE070E080E090E00E94B80265E8E1
:1016500071E0C8010E94E6040091A5011091A60165
:101660000C5F1F4F1093A6010093A5016AE070E084
:1016700080E090E00E94B80269E871E07BCF809141
:10168000A801873409F06DCEF092A601E092A50181
:1016900069E971E082E190E00E9488045092A6011D
:1016A0004092A5016091990170919A0180919B01EE
:1016B00090919C014AE00E94A2038CE20E943D02AC
:1016C0000091A5011091A6016DE971E0C8010E9489
:1016D00088040C5F1F4F1093A6010093A501609131
:1016E0009D0170919E0180919F019091A0014AE01F
:1016F0000E94A2038CE20E943D020091A50110917C
:10170000A60161EA71E0C8010E9488040C5F1F4FC6
:101710001093A6010093A5016091A1017091A2010F
:101720008091A3019091A4014AE00E94A2038CE25F
:101730000E943D020091A5011091A6016DE871E0A3
:10174000C8010E9488040C5F1F4F1093A6010093EC
:10175000A50160918D0170918E0180918F01909112
:1017600090014AE00E94A2038CE20E943D02009197
:10177000A5011091A60161E971E0C8010E948804E9
:101780000C5F1F4F1093A6010093A501609191017A
:101790007091920180919301909194014AE00E948E
:1017A000A2038CE20E943D020091A5011091A601C6
:1017B00065E971E0C8010E9488040C5F1F4F109317
:1017C000A6010093A5016091950170919601809109
:1017D0009701909198014AE00E94A2038CE20E9436
:1017E0003D020091A5011091A60161E871E0C801D8
:1017F0000E9488040C5F1F4F1093A6010093A5015F
:1018000060918101709182018091830190918401A6
:101810004AE00E94A2038CE20E943D020091A501D1
:101820001091A60165E871E0C8010E9488040C5F70
:101830001F4F1093A6010093A5016091850170913F
:10184000860180918701909188014AE00E94A2035D
:101850008CE20E943D020091A5011091A60169E869
:1018600071E0C8010E9488040C5F1F4F1093A6010D
:101870000093A5016091890170918A0180918B018B
:1018800090918C014AE00E94A203D3CD00E010E0C9
:101890000E94850361E070E080E090E00E94B80261
:1018A0008091A801863309F43FC0813409F46EC0E9
:1018B000843341F580912401909125010E94F40325
:1018C0008CE20E943D0280912601909127010E94A6
:1018D000F4038CE20E943D0280912801909129013D
:1018E0000E94F4038CE20E943D0280912A019091B3
:1018F0002B010E94F4038CE20E943D028AE491E0F5
:101900000E94950360E170E080E090E00E94B802E0
:101910000115110509F4BCCF0E94BA01882309F40E
:10192000B7CF0E940000B4CF80912401909125018F
:101930000E94F4038CE20E943D0280912601909166
:1019400027010E94F4038CE20E943D02809128014D
:10195000909129010E94F4038CE20E943D02809143
:101960002A0190912B010E94F4038CE20E943D0217
:1019700080912C0190912D010E94F4038CE20E9431
:101980003D0280912E0190912F01B3CF80913001C3
:10199000909131010E94F4038CE20E943D028091FB
:1019A000320190913301A5CFEAEDF1E0138212826A
:1019B00088EE93E0A0E0B0E084839583A683B783AC
:1019C0008CE391E09183808385EC90E09587848718
:1019D00084EC90E09787868780EC90E0918B808BF9
:1019E00081EC90E0938B828B82EC90E0958B848BE2
:1019F00086EC90E0978B868B118E128E138E148E50
:101A00000895F999FECF92BD81BDF89A992780B5C6
:101A10000895262FF999FECF1FBA92BD81BD20BD32
:101A20000FB6F894FA9AF99A0FBE01960895A1E2BA
:101A30001A2EAA1BBB1BFD010DC0AA1FBB1FEE1F48
:101A4000FF1FA217B307E407F50720F0A21BB30B93
:101A5000E40BF50B661F771F881F991F1A9469F70F
:101A600060957095809590959B01AC01BD01CF016B
:101A700008950E944A0DA59F900DB49F900DA49FBC
:101A8000800D911D11240895EE0FFF1F0590F49114
:101A9000E02D0994A29FB001B39FC001A39F700DD8
:101AA000811D1124911DB29F700D811D1124911D66
:061AB0000895F894FFCF39
:101AB600DC05DC058403DC05DC05DC05DC05DC0572
:101AC600DC05DC05FF0FFF0FFF0FFF0FFF00FF0018
:101AD600FF00FF00DC05DC058403DC05DC05DC0516
:101AE600DC05DC05DC05DC0500000000F00150012A
:0E1AF6007D014202AE018C01A0010D0A00002C
:00000001FF
